:100000000C943E000C9448000C9448000C9448005A
:100010000C9448000C9448000C9448000C94480040
:100020000C9448000C9448000C9448000C94480030
:100030000C9448000C9448000C9448000C94480020
:100040000C9448000C9448000C9448000C94480010
:100050000C9448000C9448000C9448000C94480000
:100060000C9448000C9448000C9448000C944800F0
:100070000C9448000C9448000C94480011241FBEB6
:10008000CFEFD8E0DEBFCDBF0E9470000C94B70068
:100090000C9400004A9902C080E008958FE097E236
:1000A0000197F1F700C000004A9BF6CF8FE097E27E
:1000B0000197F1F700C0000081E0089564E670E068
:1000C0000E948F0090E080E0861797070CF008955B
:1000D000E7ECF0E03197F1F700C000000196F4CFB3
:1000E00081B1836081B9529812E088EEE82E83E0F6
:1000F000F82E0E944A008823E1F3D0E0C0E012B954
:10010000CE010E945E0012B8C7018C1B9D0B0E949D
:100110005E002196C83E83E0D80789F7EACF97FBB7
:10012000072E16F4009407D077FD09D00E94A30093
:1001300007FC05D03EF4909581959F4F08957095EA
:1001400061957F4F0895AA1BBB1B51E107C0AA1FF1
:10015000BB1FA617B70710F0A61BB70B881F991F68
:100160005A95A9F780959095BC01CD010895F89412
:02017000FFCFBF
:00000001FF
